:020000040800F2
:1000000058080020290200085D1900083F15000863
:100010009918000819040008E71E000800000000F5
:100020000000000000000000000000003D1A000871
:100030001B04000800000000391A00083F1A0008DD
:10004000430200084302000843020008430200087C
:10005000430200083B1A000843020008430200085C
:10006000430200084302000843020008430200085C
:10007000430200084302000843020008430200084C
:10008000430200084302000843020008430200083C
:10009000430200084302000843020008430200082C
:1000A000430200084302000843020008430200081C
:1000B000430200084302000843020008430200080C
:1000C00043020008430200084302000843020008FC
:1000D00043020008430200084302000843020008EC
:1000E00043020008430200084302000843020008DC
:1000F00043020008430200084302000843020008CC
:100100004302000843020008011C000843020008E3
:1001100043020008430200084302000843020008AB
:10012000430200084302000843020008430200089B
:10013000430200084302000843020008430200088B
:10014000430200084302000843020008430200087B
:10015000430200084302000843020008430200086B
:10016000430200084302000843020008430200085B
:100170004302000843020008430200080000000098
:10018000430200084302000800F002F800F03CF8C7
:100190000AA090E8000C82448344AAF10107DA45E2
:1001A00001D100F031F8AFF2090EBAE80F0013F0F8
:1001B000010F18BFFB1A43F001031847D81D0000B8
:1001C000F81D0000103A24BF78C878C1FAD8520749
:1001D00024BF30C830C144BF04680C6070470000C1
:1001E0000023002400250026103A28BF78C1FBD840
:1001F000520728BF30C148BF0B6070471FB501F0E0
:10020000BBFE1FBD10B510BD00F0CFF81146FFF7C3
:10021000F5FF01F079FE00F0EDF803B4FFF7F2FF0F
:1002200003BC00F0F3F80000094880470948004784
:10023000FEE7FEE7FEE7FEE7FEE7FEE7FEE7FEE796
:10024000FEE7FEE704480549054A064B70470000F3
:10025000DD1A000889010008580200205808002013
:10026000580400205804002053EA020C00F0698072
:100270002DE9F04B4FF00006002B1FBFB3FA83F5BA
:1002800003FA05F424FA05F65E4012BF1643B2FAEB
:1002900082F502FA05F4C5F120051EBF22FA05FC1D
:1002A00044EA0C04203556EA044C4FEA144418BFC3
:1002B000641C4FF000084FF00009904271EB030CF2
:1002C00039D3002919BFB1FA81F701FA07F6B0FA5C
:1002D00080F700FA07F6C7F120071EBF20FA07FCD7
:1002E00046EA0C062037B6FBF4FCA7EB0507103FE7
:1002F00007F01F0BCBF120060CFA0BFB2CFA06F6CD
:1003000044BFB3460026202FA4BF5E464FF0000B2B
:100310005BEA060C08BF4FF0010B19EB0B09ABFBB6
:10032000027C48EB0608C01B06FB02CC0BFB03CC8F
:1003300071EB0C01C1E70B46024641464846BDE859
:10034000F08B13B54FF000004FF00001AFF30080C9
:10035000BDE81C4070474FF0000200B513469446BC
:100360009646203922BFA0E80C50A0E80C50B1F10D
:100370002001BFF4F7AF090728BFA0E80C5048BF21
:100380000CC05DF804EB890028BF40F8042B08BFBF
:10039000704748BF20F8022B11F0804F18BF00F8BB
:1003A000012B7047704770477047754600F028F87A
:1003B000AE4605006946534620F00700854618B052
:1003C00020B5FFF73FFFBDE820404FF000064FF09B
:1003D00000074FF000084FF0000B21F00701AC467A
:1003E000ACE8C009ACE8C009ACE8C009ACE8C00999
:1003F0008D4670470446AFF300802046FFF70DFF9F
:1004000000487047F801002070470000014918209B
:10041000ABBEFEE726000200FEE770470148006819
:10042000406A70479000002002480068406A4042DD
:1004300070470000D800002010B53C21044800F0AF
:1004400057FEBDE810403C21024800F051BE0000BC
:1004500090000020D800002072B6FEE770B5044678
:1004600000F00CF90546601C02D0044800780444F2
:1004700000F004F9401BA042FAD370BD0000002038
:100480002DE9F84FDFF8BCA10022012503264FF02B
:100490000F090AF1040BAAF1040E00BF0B6805FA5C
:1004A00002F42340A34270D10F7907F00307012F14
:1004B00001D0022F16D187684FEA420806FA08FCDD
:1004C00027EA0C07D1F80CC00CFA08FC4CEA070C20
:1004D000C0F808C04768A7430C79C4F300149440DF
:1004E0003C4344600C79E443A4070AD0C4684FEA53
:1004F000420C06FA0CF7BC438F6807FA0CF7274347
:10050000C7600C7904F00304022C12D1D40800EB6C
:10051000840CDCF820405707FF0E09FA07F824EA9C
:100520000804D1F8108008FA07F848EA0408CCF863
:10053000208004684FEA420C06FA0CF7BC430F799E
:1005400007F0030707FA0CF7274307604C6814F419
:10055000403F70D03C4C276847F4804727602468B0
:1005600022F0030704F480440094384C07EB040C99
:10057000DCF8084897074FEA177809FA08F7BC43F0
:10058000334FB84202D1002724E054E0314FB84243
:1005900001D101271EE0304FB84201D1022719E0F6
:1005A0002E4FB84201D1032714E02D4FB84201D19C
:1005B00004270FE02B4FB84201D105270AE02A4F4C
:1005C000B84201D1062705E0284FB84201D10727DC
:1005D00000E0082707FA08F72743CCF80878DAF88C
:1005E00000405746D1F804C09C435FEACC2C00D5AC
:1005F0001C433C60DBF800405F46D1F804C09C43DC
:100600005FEA8C2C00D51C433C60DEF80040774646
:10061000D1F804C09C435FEA8C3C00D51C433C608D
:10062000084F083F3C68D1F804C09C435FEACC3CCB
:1006300000D51C433C60521C102AFFF42FAFBDE8CC
:10064000F88F0000083C014044380240003001406F
:10065000000002400004024000080240000C02407A
:10066000001002400014024000180240001C02402A
:100670000AB1816170470904FBE700000148806806
:100680007047000000000020024881680278114491
:1006900081607047000000200B4810B5016841F4EC
:1006A00000710160016841F480610160016841F4FA
:1006B00080710160032000F077F80F2000F006F849
:1006C00000F024F8002010BD003C024070B50D4D34
:1006D00004464FF47A712878B1FBF0F00A490968B2
:1006E000B1FBF0F000F0F4FA48B9102C07D2002268
:1006F0002146501E00F038F800206C6070BD0120CB
:1007000070BD0000000000200C0000200E4808B55D
:10071000016841F480410160006800F4804000906D
:100720000948001F016841F0805101600068002203
:1007300000F0805000901146052000F015F8BDE84B
:100740000840052000F002B844380240002809DBC8
:1007500000F01F02012191404009800000F1E020DB
:10076000C0F8001170470000F0B40E4B1B680C4637
:10077000C3F30223C3F10705042D00D90425191D75
:10078000072901D2002300E0DB1E012606FA05F14D
:10079000491E214099409E40761E16403143F0BCD0
:1007A00001F0A2BB0CED00E0064900F0070208686A
:1007B0004FF6FF03184040EA0220034A1043086046
:1007C000704700000CED00E00000FA052DE9F0474D
:1007D0000E46050065D0DFF81481D8F80000F7B2A6
:1007E00000F00700B04207D288F80070D8F8000087
:1007F00000F00700B04254D128683D4C810712D563
:10080000400703D5206840F4E050206028780007B6
:1008100003D5206840F4604020602068A96820F07B
:10082000F000084320602878C0072DD03049686860
:100830000839012812D0022813D0032811D00968E2
:10084000890700292DDA216821F003010143216085
:10085000FFF714FF814641F2883A0EE009688903E8
:10086000EFE709688901ECE7FFF708FFA0EB090152
:10087000514502D90320BDE8F0872068696800F07F
:100880000C00B0EB810FEFD1D8F80010404601F01A
:100890000701B14207D90770006800F00700B042B5
:1008A00001D00120E7E72878400705D52068E968EE
:1008B00020F4E050084320602878000706D520681F
:1008C000296920F4604040EAC100206000F018F877
:1008D0002168084AC1F30311515CC8400649086009
:1008E00006480068FFF7F2FE0020C4E7003C024023
:1008F00008380240821F00080C000020040000207D
:10090000154810B5006810F00C02144813D01449B3
:10091000042A0FD0082A0ED10F4C241F2268236806
:1009200002F03F025B0207D52068C0F38810A0FBED
:10093000010106E0084610BD2168C1F38811A1FB42
:1009400000010023FFF790FC2168C1F30141491C1D
:100950004900B0FBF1F010BD083802400024F4005B
:1009600040787D012DE9F84F04006ED02078DFF843
:100970004C93C007A9F104054AD009F104000168AD
:10098000C1F38101012908D00068C0F38100022869
:100990000AD1D9F80000400206D52868800337D56F
:1009A00060680028E1D033E06068B0F5803F10D087
:1009B000B0F5A02F286810D020F480302860286877
:1009C00020F4802028606068A8B1FFF757FE064633
:1009D0000DE0286840F48030F4E740F4802028607F
:1009E000F7E700BFFFF74AFE801B642873D828682A
:1009F0008003F7D50CE0FFF741FE064605E000BF97
:100A0000FFF73CFE801B6428F0D828688003F7D4E9
:100A10002078DFF8AC8280074FF0000A3ED5A74867
:100A2000001D016811F00C0F08D00068C0F38100B0
:100A300002280BD1D9F80000400207D428688007AB
:100A400016D5E068012800D112E033E1E068B8B1C2
:100A50000120C8F80000FFF711FE064605E000BFC0
:100A6000FFF70CFE801B0228C0D828688007F7D546
:100A70002868216920F0F80040EAC10028600DE0F4
:100A8000C8F800A0FFF7FAFD064604E0FFF7F6FD00
:100A9000801B02281FD828688007F7D42078000719
:100AA00022D5864F87486169703771B10121016095
:100AB000FFF7E4FD064604E0FFF7E0FD801B022897
:100AC00009D838688007F7D50EE0C0F800A0FFF716
:100AD000D5FD064605E082E0FFF7D0FD801B022829
:100AE0007DD838688007F7D42078400768D5DFF8CC
:100AF000CCB100270BF13C0BDBF80000C0000BD49D
:100B0000DBF8001041F08051CBF80010DBF800005A
:100B1000012700F0805000906B4E3068C00510D463
:100B2000306840F480703060FFF7A8FD009005E069
:100B3000FFF7A4FD0099401A022850D83068C0057C
:100B4000F6D55E4EA0686C3601280FD005283068B7
:100B500010D020F001003060306820F004003060D8
:100B6000A068B8B1FFF78AFD00900FE0306840F050
:100B70000100F4E740F004003060F7E7FFF77EFD86
:100B80000099411A41F28830814266D83068800766
:100B9000F4D50EE0FFF772FD009007E0FFF76EFD61
:100BA0000099411A41F28830814256D83068800756
:100BB000F4D42FB1DBF8001021F08051CBF80010F5
:100BC000A069C8B33D49091D0968C1F38101022923
:100BD0004AD00228504607D0C8F8600000E03CE048
:100BE000FFF74CFD04463BE04746C8F86000FFF7BE
:100BF00045FD064605E000BFFFF740FD801B0228CB
:100C00002BD828688001F7D4D4E907010843A16AEA
:100C10002E4A490802EB0141626A41EA8211084307
:100C200094F82C1040EA0161C9F8001001203866E0
:100C3000FFF724FD044606E03EE000BFFFF71EFD7F
:100C4000001B022809D828688001F7D534E000BFCE
:100C5000FFF714FD001B022802D90320BDE8F88F1E
:100C600028688001F4D427E00128F7D0D9F80000E3
:100C7000E26900F4800191421CD1226A00F03F0138
:100C8000914217D147F6C071626A0140B1EB821FF1
:100C900010D1A26A4FF0FF3300F4403103EB52024F
:100CA000B1EB024F06D194F82C1000F07060B0EB5D
:100CB000016F01D00120D1E70020CFE704380240C6
:100CC00000004742800E4742007000400000FFFFD6
:100CD00010B5401EB0F1807F01D3012010BD4FF050
:100CE000E02460610F21601701F0FEF80020A06190
:100CF00007202061002010BD7047704770B590F844
:100D00003C20012A32D0012480F83C40022280F8A5
:100D10003D2003685A689D6822F070060A683243D5
:100D20005A60134B02689A4214D0B2F1804F11D02E
:100D3000104B9A420ED0104B9A420BD00F4B9A4256
:100D400008D00F4B9A4205D00E4B9A4202D00E4B60
:100D50009A4204D1496825F080031943916080F8D4
:100D60003D40002180F83C10084670BD022070BD57
:100D7000000001400004004000080040000C00405A
:100D800000040140004001400018004010B504007C
:100D900003D094F83D0010B107E0012010BD002001
:100DA00084F83C00204600F01FF8022084F83D0043
:100DB000211D206800F02AFF012084F8460084F8F5
:100DC0003E0084F83F0084F8400084F8410084F835
:100DD000420084F8430084F8440084F8450084F815
:100DE0003D00002010BD000008B5174A01681748F3
:100DF000914207D1016841F004010160006800F0F0
:100E000004001EE0124A914211D1016841F008012C
:100E100001600068002200F00800009005213220E7
:100E2000FFF7A2FCBDE808403220FFF78FBC094A5B
:100E3000914207D1016841F040010160006800F073
:100E40004000009008BD000000080040403802400B
:100E5000000C00400018004090F83D10012901D01E
:100E600001207047022180F83D100168CA6842F0F5
:100E70000102CA6000681149884214D0B0F1804F65
:100E800011D00F4988420ED00E4988420BD00E492E
:100E9000884208D00D49884205D00D49884202D0C9
:100EA0000C49884204D1816801F00701062903D06A
:100EB000016841F00101016000207047000001401D
:100EC0000004004000080040000C00400004014005
:100ED000004001400018004070B5044690F83C0006
:100EE0000025012817D0012684F83C60022084F8F0
:100EF0003D002068826822F0770222F47F428260FF
:100F00000868502838D00DDC20284FD005DC90B37D
:100F1000102811D14AE0022070BD302846D0402868
:100F20000AD13BE060282FD070280DD0B0F5805F4B
:100F300003D0B0F5005F12D0012584F83D60002099
:100F400084F83C00284670BDCB68D1E901212068B7
:100F500000F0D1FE2068816841F0770109E0CB689C
:100F6000D1E90121206800F0C6FE2068816841F4C3
:100F700080418160E1E719E0CA684968206800F0B3
:100F80008FFF5021206806E0CA684968206800F099
:100F900098FF6021206800F0B8FECEE7CA68496873
:100FA000206800F07DFF40212068F4E722680146B8
:100FB0001046F0E72DE9F0410D46040003D094F807
:100FC0003D0018B108E00120BDE8F081002084F860
:100FD0003C00204600F040F8022084F83D002068E4
:100FE000816844F2070291438160211D206800F06E
:100FF0000DFE226890689169166A2B68AF690343F9
:1010000040F20330814341EA0721A868EF690843B1
:101010004FF6FC418843E96840EA0720014328690C
:101020002F6A000140EA0730084369686D6926F0BD
:10103000AA0646EA0515294393602268906154F890
:10104000460B0162012004F81F09E0752076E07666
:101050002077A0750020B7E7F0B587B004461421CB
:101060006846FFF778F91F49266800241D4A1039A1
:10107000032502231C48B6F1804F1BD01B4FBE42F4
:1010800016D1166846F002061660126802F00202D7
:1010900005920A6842F001020A60096801F0010144
:1010A0000591C0218DE83A0004936946FFF7E8F9FD
:1010B00007B0F0BD166846F001061660126802F02F
:1010C000010205920A6842F001020A60096802946E
:1010D00001F001010591CDE900530121CDE9035152
:1010E000E3E70000403802400000024000040040F6
:1010F00070B590F83E60044690F83F5090F842304A
:1011000090F84320022021B104290ED0012E1BD1DA
:1011100014E0012E18D1012B16D184F83E0084F87A
:10112000420001220021206820E0012D0CD1012A7B
:101130000AD184F83F0084F8430014E0012D03D164
:10114000012B01D1012A01D0012070BD84F83E009D
:1011500084F83F0084F8420084F843000122002113
:10116000206800F0BBFD01220421206800F0B6FDDC
:101170002068016841F001010160002070BD7047E6
:101180002DE9F04104460068C66805694FF0000784
:10119000A90713D5B10711D5F91E016101202077E8
:1011A000206880698007204602D0FFF7E8FF04E04E
:1011B00000F0C0F8204600F052F92777680716D5EE
:1011C000700714D521686FF00400086102202077B1
:1011D0002068806910F4407F204602D0FFF7CFFFDF
:1011E00004E000F0A7F8204600F039F92777280737
:1011F00015D5300713D521686FF008000861042069
:1012000020772068C0698007204602D0FFF7B7FF2B
:1012100004E000F08FF8204600F021F92777E80677
:1012200016D5F00614D521686FF01000086108206B
:1012300020772068C06910F4407F204602D0FFF775
:101240009EFF04E000F076F8204600F008F92777CA
:10125000E80708D0F00706D021686FF001000861A8
:10126000204600F061F9280608D5300606D5216829
:101270006FF0800008612046FFF73EFD680608D544
:10128000700606D521686FF040000861204600F026
:1012900055F9A8060AD5B00608D521686FF02000D8
:1012A00008612046BDE8F041FFF727BDBDE8F081A9
:1012B00010B586B0044614216846FFF74CF8236841
:1012C000174C002217480221A34210D1036843F0B3
:1012D00008030360006800F0080005904FF4204008
:1012E0008DE80700CDE9032169460F4813E00F4A56
:1012F000934212D1026842F0020202600068029139
:1013000000F0020005901814CDE900010920CDE994
:10131000031069460648FFF7B3F806B010BD000099
:101320000008004030380240000C02400018004025
:1013300000040240704770B5044690F83C00002657
:101340000D4601280FD0012084F83C006AB1042A20
:101350001DD0082A2FD00C2A3FD00126002084F867
:101360003C00304670BD022070BD206800F0D6FC05
:101370002068816941F0080181612068816921F05C
:1013800004018161206881692A69114311E02068A4
:1013900000F0F4FC2068816941F4006181612068FB
:1013A000816921F480618161206881692A6941EA4B
:1013B00002218161D2E7206800F016FD2068C16932
:1013C00041F00801C1612068C16921F00401C161D7
:1013D0002068C1692A69114311E0206800F038FDD6
:1013E0002068C16941F40061C1612068C16921F4CC
:1013F0008061C1612068C1692A6941EA0221C16135
:10140000ACE710B5040003D094F83D0010B107E03C
:10141000012010BD002084F83C00204600F01EF89A
:10142000022084F83D00211D206800F0EFFB012020
:1014300084F8460084F83E0084F83F0084F84000B9
:1014400084F8410084F8420084F8430084F84400A2
:1014500084F8450084F83D00002010BD70477047B7
:1014600010B50446022249B104290ED0082913D030
:1014700094F84100012816D0012010BD94F83E00D8
:101480000128F9D184F83E200FE094F83F000128AC
:10149000F2D184F83F2008E094F840000128EBD115
:1014A00084F8402001E084F841200122206800F007
:1014B00015FC16492068164A884201D0904203D193
:1014C000436C43F4004343642068884213D0B0F176
:1014D000804F10D00F4988420DD00F4988420AD062
:1014E0000E49884207D0904205D00D49884202D06B
:1014F0000C49884204D1816801F00701062903D014
:10150000016841F001010160002010BD00000140B0
:10151000000401400004004000080040000C0040AE
:10152000004001400018004000680349884201D192
:1015300000F0B4B970470000000C00407047FEE7AF
:101540002DE9F04186B014216846FEF704FF3248C9
:101550000024016841F004010160016801F0040108
:101560000591016841F080010160016801F080018E
:101570000591016841F001010160016801F001017C
:101580000591016841F010010160016801F010014E
:101590000591016841F002010160016801F002015A
:1015A0000591016841F00801016000681B4F00F0DF
:1015B00008004FF4E0650590002229463846FFF701
:1015C00057F8DFF85C804FF4A046002231464046D1
:1015D000FFF74EF800950125CDE9015469463846DC
:1015E0000394FEF74DFF0096CDE90154694640464D
:1015F0000394FEF745FF4FF4C06000900220CDE950
:101600000104032003900720049069460548FEF773
:1016100037FF06B0BDE8F0813038024000100240CC
:10162000000C02400000024010B58CB0002407946A
:10163000089409941C2168460A94FEF78CFE1A4807
:10164000184901605321C0E9011444F61F61C0E943
:1016500003148461FFF79AFB08B1FEF7FDFE4FF417
:101660008050079007A91048FFF736FC08B1FEF735
:10167000F3FE0D48FFF7C5FE08B1FEF7EDFE602052
:10168000CDE9000402940022694607480494FFF75C
:1016900052FE08B1FEF7E0FE0348FFF709FE0CB06A
:1016A00010BD000000180040B001002010B58CB043
:1016B00024216846FEF74FFE0024164809944FF097
:1016C00080410A94C0E900144FF6FF71C0E902415D
:1016D0008021046181610320CDE900040120CDE96E
:1016E00002040494CDE9054007946946094808942A
:1016F000FFF760FC08B1FEF7AFFE099409A90548A1
:101700000A94FFF7FBFA002801D0FEF7A5FE0CB003
:1017100010BD00009000002010B58CB02421684658
:10172000FEF719FE00241648099414490A94C0E9EA
:1017300000144FF6FF71C0E902418021046181610C
:101740000320CDE900040120CDE902040494CDE991
:101750000540079469460A480894FFF72BFC08B136
:10176000FEF77AFE099409A905480A94FFF7C6FA1C
:10177000002801D0FEF770FE0CB010BD0004004040
:10178000D800002010B58EB0002407940894099466
:101790000A940B941C2168460C94FEF7DCFD234848
:1017A000214901605321C0E9011440F2E731C0E949
:1017B000031480218161FFF7E9FA08B1FEF74CFEBE
:1017C0004FF48050079007A91848FFF785FB08B130
:1017D000FEF742FE1548FFF714FE08B1FEF73CFE87
:1017E0000B940BA911480C94FFF788FA08B1FEF787
:1017F00033FE6020CDE900040294042269460B48C0
:101800000494FFF798FD08B1FEF726FE0C22694606
:101810000648FFF790FD08B1FEF71EFE0348FFF7EC
:1018200047FD0EB010BD0000000800402001002060
:1018300010B586B0002417480094019402940394D4
:10184000049413490594016042F2CF01C0E90114E8
:101850006321C0E9031480218161FFF797FA08B181
:10186000FEF7FAFD4FF48050009069460948FFF7F3
:1018700033FB08B1FEF7F0FD049404A90548059474
:10188000FFF73CFA002801D0FEF7E6FD06B010BDD8
:10189000000C004068010020FEE7000070B5FEF774
:1018A000BDFD0346FEF7C0FD0546154800F14002A8
:1018B000416B5C1A516B4363556300EE904A691AA1
:1018C000C463D16390ED030AF8EEE00A00F047F834
:1018D00000EE901A0A48B0EE402A92ED030AF8EEA4
:1018E000E00A403000F03BF8BDEEC00ABDE87040B1
:1018F00010EE101ABDEEC20A10EE100A00F02AB95E
:101900001000002000EE100A0648B8EEC00A80ED74
:10191000030A00EE101A4030B8EEC00A80ED030A48
:10192000704700001000002010B5FEF785FDB7EEEF
:10193000001AF6EE000AB0EE000A074800F056F86A
:101940000548BDE81040B7EE001AF6EE000AB0EE0A
:10195000000A403000F04AB810000020FEE780ED99
:10196000030A30EE600AC0ED040A80ED050AD0EDEE
:10197000080A70EE800AC0ED080A90ED091AF4EE2C
:10198000C10AF1EE10FA06DCB1EE411AF4EEC10A1A
:10199000F1EE10FA01D280ED081AD0ED000A90EDB8
:1019A000011AD0ED081A60EE800A41EE210A90ED8E
:1019B000061AD0ED021A30EE411A41EE810AC0ED4E
:1019C0000A0A90ED0B1AF4EEC10AF1EE10FA06DCE9
:1019D000B1EE411AF4EEC10AF1EE10FA01D280ED37
:1019E0000A1A80ED060A90ED0A0A704780EC030A95
:1019F00000219FED0E0A80ED030A80ED040A80EDC0
:101A0000050A80ED060A80ED070A80ED080A80EDE0
:101A10000A0A9FED070A80ED090A9FED060A80ED8C
:101A20000B0A016341638163C163704700000000DA
:101A30000000FA4300007A44704770477047FEF791
:101A400023BE000030B593B030216846FEF783FC1A
:101A500014210CA8FEF77FFC1E480025016841F008
:101A600080510160006800F0805011901A480168B0
:101A700041F4804101600068022400F4804011902C
:101A800001200090000401908001CDE9064019205A
:101A900008904FF4A870CDE9090404200B90684623
:101AA000FEF760FF08B172B6FEE70CA90F2081E8CF
:101AB00031004FF4A0500F904FF48050109005214A
:101AC0000CA8FEF783FE002801D072B6FEE713B023
:101AD00030BD0000403802400070004002480168FC
:101AE00041F470010160704788ED00E0164910B5BF
:101AF0000A68002090630968086404211248FFF70F
:101B0000AFFC0C211048FFF7ABFC104C0122110375
:101B10002046FEF7ADFD00224FF480412046FEF73F
:101B2000A7FD0B4C012211022046FEF7A1FD002269
:101B300061152046FEF79CFD20460122BDE81040BD
:101B40009102FEF795BD000020010020000C02402C
:101B5000001002402DE9F0410C4605464FF47A7121
:101B600048428D4201DD0D4602E0854200DA05461D
:101B70008C4201DD0C4602E0844200DA04464FF458
:101B800080511C4E8F00002D09DB01223046FEF7EC
:101B90006FFD002239463046FEF76AFD09E000225B
:101BA0003046FEF765FD012239463046FEF760FDFE
:101BB0006D424FF48071104E4F00002C09DB012262
:101BC0003046FEF755FD002239463046FEF750FDFF
:101BD00009E000223046FEF74BFD0122394630462F
:101BE000FEF746FD6442054801688D6300680464A1
:101BF000BDE8F081000C02400010024020010020EE
:101C00000148FFF7BDBA000068010020F0B5026886
:101C1000274B284D284E294F294C4FF0804C984295
:101C200009D0604507D0A84205D0B04203D0B842E1
:101C300001D0A04204D122F0700E4A6842EA0E029E
:101C400098421BD0604519D0A84217D0B04215D099
:101C5000B84213D0A04211D01A4DA8420ED01A4D4E
:101C6000A8420BD0194DA84208D0194DA84205D062
:101C7000184DA84202D0184DA84203D122F4407555
:101C8000CA682A434D6922F080022A438D68C562E2
:101C90000D688562984201D0A04201D109690163B3
:101CA000016841F004010160012141610260F0BD61
:101CB000000001400004004000080040000C00400B
:101CC0000004014000400140004401400048014040
:101CD00000180040001C00400020004010B501F03A
:101CE0001F030121046A99408C430462016A9A40EF
:101CF0001143016210BD10B5846842EA032224F446
:101D00007F440A432243826010BD826822F0700241
:101D10000A4342F00701816070470000F0B5036A92
:101D2000026A22F00102026242688469124E24F0C3
:101D300073050C682C4323F002058B682B430D4D73
:101D4000A84201D0B04205D123F00807CB683B433D
:101D500023F00403A84201D0B04205D14D6922F41A
:101D6000407215438A692A4342608461496841632D
:101D70000362F0BD0000014000040140F0B5026ABA
:101D8000036A23F010030362436884690D6824F436
:101D9000E64444EA05248D6822F0200242EA051256
:101DA0000F4D104EA84201D0B04206D1CF6822F0AC
:101DB000800242EA071222F04002A84201D0B0425B
:101DC00007D14D6923F4406343EA85038D6943EAF3
:101DD000850343608461496881630262F0BD00004D
:101DE0000000014000040140F0B5026A036A23F4D8
:101DF000807303624368C46922F4007224F073059F
:101E00000C68124E2C438D6842EA05220E4DA84202
:101E100001D0B04206D1CF6822F4006242EA072224
:101E200022F48062A84201D0B04207D14D6923F468
:101E3000405343EA05138D6943EA05134360C461C7
:101E40004968C1630262F0BD000001400004014026
:101E500030B5046A026A22F4805202624268C369A1
:101E60000D6823F4E64343EA05238D6824F4005407
:101E700044EA0534084DA84202D0084DA84204D1D6
:101E80004D6922F4804242EA85124260C36149688A
:101E90000164046230BD0000000001400004014004
:101EA00010B5036A046A24F001040462846924F012
:101EB000F00444EA021423F00A020A438461026235
:101EC00010BD10B5036A046A24F01004046284692A
:101ED00023F0A00324F4704444EA023243EA0111DF
:101EE0008261016210BDFEE70907090E002804DBCC
:101EF00000F1E02080F80014704700F00F0000F1BE
:101F0000E02080F8141D7047FEF7C6FBFFF79AFD2E
:101F1000FFF716FBFFF736FCFFF786FBFFF7C6FB64
:101F2000FFF7FAFBFFF784FCFFF7E0FDFFF7FCFC8F
:101F300064210846FFF7E6FC0E48FEF78DFF4FF4DC
:101F4000FA646FF063052046FEF788FA962108468A
:101F5000FFF7D8FC2046FEF781FA28462946FFF70E
:101F6000D1FC2046FEF77AFA00210846FFF7CAFCAA
:101F7000E9E70000680100204FF04070E1EE100A30
:101F80007047000000000000000001020304060783
:101F900008090000B41F0008000000201000000025
:101FA000C4010008C41F00081000002048080000F9
:101FB000E001000801000000100000000000000027
:041FC0000024F40005
:040000050800018965
:00000001FF
